:020000040800F2
:10000000D00B0020BD010008B3400008253D0008CA
:1000100000000000000000000000000000000000E0
:10002000000000000000000000000000254500085E
:100030000000000000000000B5400008274500084F
:10004000CF010008CF010008CF010008CF01000850
:10005000CF010008CF010008CF010008CF01000840
:10006000CF010008CF010008CF010008CF01000830
:10007000CF010008CF010008CF010008CF01000820
:10008000CF010008CF010008CF01000800000000E8
:10009000CF010008CF010008CF010008CF01000800
:1000A000CF010008CF010008CF010008CF010008F0
:1000B000CF010008CF010008CF010008CF010008E0
:1000C00000F002F800F04EF80CA030C808382418F0
:1000D0002D18671EA246AB4654465D46AC4201D180
:1000E00000F040F87E460F3EB6460FCC0126334264
:1000F00000D0FB1A3343A246AB461847485B0000CA
:10010000685B0000103A02D378C878C1FAD8520769
:1001100001D330C830C101D504680C6070470000BD
:100120000023002400250026103A01D378C1FBD813
:10013000520700D330C100D50B60704710B5662957
:1001400002D104F011FE10BD002010BD1FB501F05A
:100150004FFB04000020002104F0DEFCE0601FBD26
:1001600010B510BD01F05EFF1146FFF7EFFF04F080
:1001700095FA01F076FF03B4FFF7F2FF03BC02F03B
:1001800023F8000070B505460C46164602E00FCC79
:100190000FC5103E102EFAD2082E02D303CC03C591
:1001A000083E042E07D301CC01C5361F03E0217899
:1001B0002970641C6D1C761EF9D270BD07488047FB
:1001C00007480047FEE7FEE7FEE7FEE7FEE7FEE73B
:1001D00004480549054A064B704700002F450008B2
:1001E000C1000008D0050020D00B0020D00700205F
:1001F000D00700200FB41CB50C0007AA009007D050
:100200004142A14202D30019401E01E00020C04338
:10021000074B7B4469460190069801F0CEFA002016
:10022000002C01D0009908701CBC08BC04B0184711
:10023000CB150000F3B50446002081B020622046B3
:10024000E168884700287AD0252802D06268A16832
:1002500071E0E16820460025884706460020E061FD
:100260000746A0612A2E0AD0304604F04DFC002833
:1002700027D0B8000019303E0090866119E002983E
:10028000BA00121902C8916102902046E1688847BD
:10029000012F064617D1E06900281FDA2020854388
:1002A0001CE000980A218069484300998019303881
:1002B00088612046E1688847064604F025FC00284E
:1002C000EFD1012F0AD02E2E08D12046E1688847B1
:1002D0000646202005437F1C022FC3DBA0690028AF
:1002E00003DA4042A06101200543E80701D0102055
:1002F0008543002E23D030464138192803D80120E9
:10030000C00205432036204625603146029A154634
:10031000FFF714FF00280BD0012806D0ED1DE808D8
:10032000C000083002908AE709E02D1D029586E79B
:1003300062683046A1689047206A401C7EE7206AC8
:10034000FEBDF8B5042A2CD3830712D00B78491CC4
:100350000370401C521E83070BD00B78491C03709E
:10036000401C521E830704D00B78491C0370401CAC
:10037000521E8B079B0F05D0C91ADF002023DE1BFE
:1003800008C90AE0FFF7FEFEF8BD1D4608C9FD409A
:100390001C46B4402C4310C0121F042AF5D2F308A7
:1003A000C91A521EF0D40B78491C0370401C521E0F
:1003B000EAD40B78491C0370401C012AE4D4097864
:1003C0000170F8BDD2B210B513029A1813049A182E
:1003D00000F001F810BD01E004C0091F0429FBD2A0
:1003E0008B0701D50280801CC90700D002707047BE
:1003F00000290BD0C30702D00270401C491E0229FD
:1004000004D3830702D50280801C891EE3E7002203
:10041000EEE70022DFE70000002203098B4273D3DE
:10042000030A8B4258D3030B8B423CD3030C8B4201
:1004300021D312E003460B437FD4002243088B42B2
:1004400074D303098B425FD3030A8B4244D3030B5B
:100450008B4228D3030C8B420DD30902FF2212BA20
:10046000030C8B4202D31212090265D0030B8B429C
:1004700019D300E0090AC30B8B4201D3CB03C01A86
:100480005241830B8B4201D38B03C01A5241430B61
:100490008B4201D34B03C01A5241030B8B4201D351
:1004A0000B03C01A5241C30A8B4201D3CB02C01ABC
:1004B0005241830A8B4201D38B02C01A5241430A34
:1004C0008B4201D34B02C01A5241030A8B4201D323
:1004D0000B02C01A5241CDD2C3098B4201D3CB01CA
:1004E000C01A524183098B4201D38B01C01A524179
:1004F00043098B4201D34B01C01A524103098B427D
:1005000001D30B01C01A5241C3088B4201D3CB0067
:10051000C01A524183088B4201D38B00C01A52414A
:1005200043088B4201D34B00C01A5241411A00D2FA
:1005300001465241104670475DE0CA0F00D0494263
:10054000031000D3404253409C46002203098B42D3
:100550002DD3030A8B4212D38901FC2212BA030A5B
:100560008B420CD3890192118B4208D389019211DD
:100570008B4204D389013AD0921100E08909C30962
:100580008B4201D3CB01C01A524183098B4201D364
:100590008B01C01A524143098B4201D34B01C01A4F
:1005A000524103098B4201D30B01C01A5241C308C7
:1005B0008B4201D3CB00C01A524183088B4201D336
:1005C0008B00C01A5241D9D243088B4201D34B0051
:1005D000C01A5241411A00D20146524110466346A8
:1005E0005B1001D34042002B00D54942704763465F
:1005F0005B1000D3404201B50449002802DC491CCD
:10060000084000E00846C046C04602BDFFFFFF7F2D
:1006100070477047704700000246C80FC00781430B
:100620004B0030B54B405B009B0D20D01923DB06FF
:10063000C91801231B05994220DB0324A4070425C4
:100640001346AB400BD3002B04D1EB0613409B00A9
:10065000E34204D401246407002312195941FF2303
:100660001B0599420BD2C9000143500F09E0CB0290
:1006700004D501430803024305D0054830BDFF21DE
:10068000C905084330BD084607210905884330BD28
:100690000000C07FF0B50C46871A9C410D46861AB3
:1006A0009D4103D2C01BA141D21963410D0D1F0D05
:1006B000C94EEC1BAE435CD07F057F0D0026002F9A
:1006C00051D02D05AC46A943DD020123ED0A1B05DF
:1006D0001D4320231B1B24D41746E74038187141C3
:1006E0002F46E740CC199D402818314661410C0D3A
:1006F00027D161449A4013D50023401C5941520030
:100700000ED14008400001224B005205D34207D3CE
:1007100005204007C14201D5B04900E0B04930464C
:10072000F0BD6B00002A00D001229A181F23203C44
:100730001B1B01D5002302E0E540281871410C0D78
:10074000D7D0012424050919C407CD07400849085A
:10075000E40F28436144002CD5D00024401C6141A3
:100760009A40D0D1CDE76A05520DD9D1C90FC9073A
:10077000D5E79C4D4E00002801D0012400E0002464
:1007800034195F00002A01D0012600E00026BE19BE
:10079000954FAC420CD8AE420AD8B44206D00125DF
:1007A0006D05EC42BCD010461946F0BD9942FCD014
:1007B00000203946F0BDF0B51FB40C460F46811A33
:1007C0009F412546861A9D4106D20125ED076F40BF
:1007D000401ABC4152187B41210D1E0D8D1BAC46A9
:1007E0007D4D8D437ED075056D0D7CD00D05AE46DB
:1007F000AC431B031B0B794D52429D41202366469F
:100800009B1B14D31746F7403818002600907441FC
:1008100060462F460741E41900989D40281866411C
:1008200016D4714671189A4025D5012320E09318FB
:100830002A466A415200002B00D0521C1E23203E43
:100840009B1B002B61DD3541EE1728186641E8D56A
:10085000001876415B1C9A4000D3401C4B05F318EE
:100860001524E34010D3002B52D071467118D30FDA
:10087000C01802D3491C05B0F0BD0123DB079A4222
:10088000F9D140084000F6E701225205B21801D123
:10089000002853D00123CC0ADB029943891E002A89
:1008A00008D1020C03D0020C0004103902E0024609
:1008B000002020390023550B05D112020823550BC7
:1008C00001D152010D23550C01D112011B1DD50C74
:1008D00001D192009B1C150D01D152005B1C2025FB
:1008E000EE1A01E02CE022E00546F5401543984061
:1008F000CA1AE10769181305C918002ABBDA0320D0
:1009000040070818C10FC9070FE071466118B2E728
:10091000F10740080843711071444A000CD00123CC
:100920005B059A42A7D2C90FC9070020A3E7490572
:10093000490D26D1002001E00028F4D100219AE7DA
:10094000284D6600002801D0012100E00021711827
:100950005F00002A01D0012600E00026BE19224FC8
:10096000A94210D8AE420ED8B14208D001256D057B
:10097000E94206D01946A802414010467BE79C4256
:1009800001D0214677E70020394674E710B50C46C0
:100990005C4005D50124E4076340FFF70CFF10BD60
:1009A000FFF778FE10BD30B40C465C4004D501243E
:1009B000E407634030BC6DE630BCFCE670B5012452
:1009C000E40761400D465D4002D4FFF763FE70BD51
:1009D0006340FFF7F0FE70BDFF0700000000F0FF6E
:1009E0000000F07F0000E0FF0000F87FF0B5F94D57
:1009F0000C091E092C402E402F468BB0A7437DD0FA
:100A0000B543FCD0002E7AD0002CFCD00D465D40C2
:100A1000ED0F2543AC1BFF25AD0464190894C502F6
:100A2000440DC9022143500DDC0204430120C007DC
:100A300001430443D2020191200C110C00958C4615
:100A4000010423468B430A9161460904E24D8A431F
:100A50000991010A7D4449198039097805464D43B9
:100A600001266D18F605751B6943C90C640B891CBA
:100A70004C436418B5012C1B250C2E04B4434C4385
:100A80004D43210C691889090591009DE90701D0A2
:100A90000121C90704912C4601996708CD072F430E
:100AA0004C08059DE10B4D432D0C294666467543C8
:100AB00002950D4645432E46029D7D1BB44100958F
:100AC0000D465D4301942C0C2F040D465543AE4654
:100AD0002D0C3D43029503947546049C2D04641B24
:100AE000049406D2029C039D641C00267541039564
:100AF000029401AC70CC009F7D1B01E03EE162E1FD
:100B0000B44109040095079101940599A408614333
:100B1000090C0C464443650BE7040C4666467443D7
:100B2000A646640B3C43039502947446049DE4047A
:100B30002C1B049406D2029C039D641C0026754164
:100B40000395029401AC70CC009F7D1BB4410194CD
:100B50000C465C430095650FE7000C465443A646DF
:100B6000640F3C43039502947446049DE4002C1BDF
:100B7000049406D2029C039D641C002675410395D3
:100B8000029401AC70CC009F7D1BB441AE09AF064E
:100B9000049DC900AD092F43049DA406AD0604952C
:100BA000079D344369180791059DE10B4D432D0CBA
:100BB00029466646754302950D4645432E46029DDD
:100BC0007D1BB44100950D465D4301942C0C2F0410
:100BD0000D465543AE462D0C3D4302950394754694
:100BE000049C2D04641B049406D2029C039D641C87
:100BF000002675410395029401AC70CC009F7D1BCB
:100C0000B44101948C050694079C890A61180095EB
:100C10000791019C0599A4086143090C0D464543C1
:100C2000680BEF040D46644665436C0B3C43049F20
:100C3000ED047D1BAC4602D20025641C6841009E79
:100C4000019D371B85410846584301950C46460FC8
:100C5000C5005443600F28436546E4002C1B02D2B4
:100C60000025401C6E41019D3F1AB5412846BD0933
:100C7000800628438446A009BF064E020699A406B2
:100C800076180743079D002068410A990790194389
:100C90000020099B00906046FF1913434041E20F7A
:100CA00064003A43A4460446D71A8C41A04203D9B3
:100CB0000120009020463A46C70F941840416246F2
:100CC000D20F2243644664000494009CBE46640034
:100CD000D71AA446044602978C417746002F01D1CB
:100CE000A04204D96046401C8446029A2046C40FA4
:100CF000A64694184041049A0546D20F2243644602
:100D00006400D31A8D417146002901D1A84202D94D
:100D100028461A46641C10430122002800D01643BE
:100D200061020020079B891904465C410223002CC4
:100D300002DB491813466441089DCE0A2D145D1943
:100D40004B056705E10A2C050D1908993E43C907B3
:100D50006940002B08D0934006D30022761C5141F5
:100D6000002B01D1760876001C4A002D43DB15428A
:100D700041D0AA433FD030460BB0F0BD06180D4617
:100D80004D41174C7642AC411AD395181C465C4134
:100D9000134A6D42A24113D3012252054C00D442A2
:100DA0000AD15C00D4420BD04B4002D592021143D1
:100DB000E2E749004908DFE75940C90FC90718E0D1
:100DC00000200849D8E7054801420DD10342F7D079
:100DD000F2E700000000FF07204300000000F07F62
:100DE0000000E0FF0000F87F114859400143C012A5
:100DF00041400020C0E70123089A9B069A4205DC87
:100E0000032252078918C90FC907B5E705225207FF
:100E10008918074A1143D2125140ADE770B5154603
:100E20001C4602460B4628462146FFF7DFFD70BDF3
:100E3000FFFFFF7F30B50346CA02400D1043164D39
:100E4000164C0A1502D02043002A06DBAA1A002AF3
:100E500012DDD040FF2A0BDC30BD5205520D01D10E
:100E600040004008AA1A07D4D0404042FF2A01DDC2
:100E7000002030BD0028FCDD4A00002B01D00120FD
:100E800000E00020101801225205D042F0D8C81707
:100E9000C043604030BD00001E0400000000008020
:100EA0000346CA02400D10B510430A1504D00124B0
:100EB000E4072043002A05DB0A4CA21A04D4D040E0
:100EC000FF2A00DD002010BD4A00002B01D00120C8
:100ED00000E00020101801225205D042F2D8C817B5
:100EE000C04310BD1E0400001F22030C02D10F22BC
:100EF000000402D0030E03D004E000200146704736
:100F00000002083A030F01D10001121F830F01D123
:100F10008000921E002801DB4000521E120551186D
:100F20004205C012411810467047C10FC90700D0D2
:100F30004042012292071143D6E701218907D3E7F6
:100F4000F0B58B4C0F09254689B0BD437BD01D09F8
:100F50002646AE43FAD00E465E402740F60F3E438B
:100F6000254071D024012142FBD0FF24AD19A404F7
:100F70002D1B039501252D05DB02DB0AC9022B433E
:100F8000C90A29431E010901040F130F050121435A
:100F90001701880B820391432D098C46A90B1E4330
:100FA0008A039543B30B9A0396433F09BA0B940304
:100FB000A74302962E467E430497B6464E19D7198C
:100FC0000C460196544305977E43371B7646BF1B5C
:100FD0003601B646BE0B361900967646BC04371964
:100FE000009C01D3641C00946400002F01D00126F2
:100FF0003443029E049F754366467E430496760002
:1010000034196E0034190094029C019E1C19664329
:10101000751BAE46069465464519059C05956C43BF
:10102000594375460891691A0191049E014651433E
:10103000A41B0491611A009C0791E10605D0610987
:101040000122114302E072E06EE06109089D002771
:101050002C0A2D066918049D7C412A0A2D06691860
:10106000019D6241AC0DAD026D185441079A910D7E
:10107000920255196141029A644658435443069BB3
:10108000059A5A43121A131B9A0E9B015B187A4158
:10109000010B0005C3185141220A200644195A4188
:1010A0009A4200D2491C01204002814203D31523F9
:1010B0000226F64302E014230326F6432020C51A35
:1010C000A9401746AF40DA400A4320460399D8406A
:1010D0000914731819055118039A3843D20751405F
:1010E000AC4009D00122944006D30022401C51415B
:1010F000002C01D1400840001E4A934212D3012225
:1011000003989206904207DB0520400709181A4809
:101110000143C012414004E0032040070818C10FFA
:10112000C907002009B0F0BD0020F107FAE7051853
:101130000C464C4111486D42A04115D394181A46F3
:101140005A410E48644290410ED301204A004005A6
:10115000824209D35A00824206D35940C90F084A35
:10116000C90700201143DDE700200649DAE7000047
:101170000000FF07FE070000FFFFFF7F0000E0FF09
:101180000000F07F0000F87F0121C905012341180C
:1011900042001B06D3185B0E0AD0C1100722D206EC
:1011A000891840075242D14201D552008918704730
:1011B000090208D50146002A03D0C10FC907002043
:1011C000704710467047420202D000200249704723
:1011D000072109050143F4E70000F87FF0B5FF257A
:1011E0002D04C609C209FF2704462E400137CB094A
:1011F0003E4348402A402B400746002A6BD0002B34
:1012000069D0AA4267D0AB4265D0002800DA3246E6
:101210000125ED0529432C4309022002090AD21AAF
:101220004B0C7F24E31A434C000A7C44E35C7D248E
:101230002404121914145B00A218884201D3521C12
:1012400000E0400049420C465C4324115C43DB0152
:101250006415E318040A5C43C502200D0C464443A0
:101260006419250A5D432303EC0C0D466543000316
:101270000019EB184C42A34201D35B18401CD40563
:101280002018002B07D05B00C91804D3401C00298C
:1012900001D1400840003F2189048A4209D3002A35
:1012A00008DC1106090F04D0032149074018C00FBC
:1012B000C007F0BD01224100120689187F225206A4
:1012C0009142F6D205214907C84201D59010F0BDE0
:1012D000FF20C005F0BD002F00DA32461648AA42B2
:1012E00007D2AB4205D21902090E17D0F80FC0077A
:1012F000F0BDFF2563002D06AB42F9D84900A94295
:10130000F6D8AB4201D1A942F2D0A94201D10021C5
:1013100001E061004908D0050843F0BD1102090E43
:10132000FBD0FF200243D005F0BD0A46014610461F
:1013300054E70000CA3B00000000C07F1F22030CDE
:1013400002D10F2200041CD0030E01D10002083A82
:10135000030F01D10001121F830F01D18000921EE3
:10136000002801DB4000521ED2055118021251180C
:101370001922904004D3491C002801D14908490092
:1013800008467047C10FC90700D0404201229207AA
:101390001143D3E701218907D0E70000FFB50C46D0
:1013A0001E468FB003CA089009914F007D0D00D1F1
:1013B0006D1E002108460020C0460321099A8905B8
:1013C0000840002A03DA8200801840080840800D97
:1013D00001280A9002DD0020C0430A9008980743C4
:1013E0000DD0F048F04928184843071418980028F1
:1013F0001DD07542291E1DDD0A9842421BE0189837
:10140000012802D00020302104E00020F24305E052
:101410002154401CB042FBDB30460022189B0021C7
:1014200021540F998B600A60486013B0F0BDBD1B5A
:101430006D1CDFE70A9A002900DA69420BA800F068
:101440005DFA0BAB07CB03AB07C30899099800F013
:10145000C1FA6B4607C30146D4480918002D009114
:101460000BDDD24903980A9A49424018002303A988
:101470000390684600F01EFD08E003990A9A0023D5
:10148000081803A90390684600F0BEFC6B4607C32A
:101490000004000C03D00020C043410800E01046C7
:1014A000189A002A03D00022009215461EE0751EED
:1014B00005D400F0A1F9303262556D1EF9D5012234
:1014C0000843079602D000227F1C04E020783028D1
:1014D00001D100227F1E002A069787D01EE0112D21
:1014E00007DA00F089F9303262556D1C02460A4372
:1014F000F5D1084303D00098002819D00EE0002150
:10150000681E05E0235C625C63542254401E491C43
:101510008142F7DBA81B401E07950690079A189991
:101520000020A0540F98079B069A81600CC07CE7AE
:1015300011260020189059E7D21DF0B50D4604463B
:10154000D10893B0C90003C90C900D9103F0AEFA15
:1015500002460D98C00F01D02D2007E020688107BA
:1015600001D52B2002E04007C00F4001032A0F9055
:1015700001D0072A05DB03462946204600F07AF908
:101580000EE12078800601D5E76900E006272846AD
:10159000652D04D0662814D0672D69D12DE0002078
:1015A000112F009001DB112300E07B1C0CAA03A982
:1015B00010A8FFF7F3FE1199002610987D1C0E91DC
:1015C00042E001203B460CAAC0070B90012000908E
:1015D00003A910A8FFF7E2FE119D129810990026AA
:1015E00000280E9501D1781C0D18781B02D44642B4
:1015F0007D1C761EE81B00903AE0012F00DA0127DF
:101600000020112F009001DD112300E03B460CAAC1
:1016100003A910A8FFF7C2FE11993D4610980026B5
:101620000E91217809070BD40E99A94200DA0D46D4
:1016300003A9012D04DD4A19203AD27F302A06D0B1
:10164000B84201DA011D04DA012100910FE06D1E9C
:10165000EFE7002802DC86192D1A03E0411CA9429D
:1016600000DD0D46801B401C00900120C0070B9040
:101670002078000705D40098A84202DB0020C04370
:10168000009069460020C8720B98012102AF033711
:10169000C907884225D0022010902B2011900B986A
:1016A00000280BDA40420B902D20119006E00B9899
:1016B00000F050FC30317F1E0B9039701099481E9D
:1016C00000291090F3DC0B980028F0D111987F1EB0
:1016D00038702088000501D5452000E065207F1E78
:1016E000387001A8C01BC01D0B900F98002800D0B7
:1016F000012041190098C01709180B980818A16912
:10170000081A401EA0612078C00602D42046C046B8
:10171000C0460F98002805D06268A1689047206AEB
:10172000401C20622078C00625D52046C046C04611
:1017300021E0002E07DB0E98B04204DD03A86268AA
:10174000805DA16802E06268A16830209047206A4D
:10175000761C401C20620098401E002800900AD190
:1017600000F046F8C06862680168405CA168904774
:10177000206A401C206228466D1E0028D9DC07E044
:1017800062683878A1687F1C9047206A401C2062FC
:101790000B99481E00290B90F2DC2046C046C0463B
:1017A000032042E601FCFFFF104D0000E1DFFFFFD8
:1017B00001694A1C02610878704700B58FB0029138
:1017C0000021059105490193794403911146049044
:1017D0006846FEF72FFD0FB000BD0000E5FFFFFFDC
:1017E0000CC908399A4202D2531C0B601070704722
:1017F00000487047380000200B4670B50246890744
:101800008008084319469D08141AA94125090807AC
:10181000054308092C194841250A01060D43010A10
:101820002C194141200C0D0428430D0C00194D4189
:10183000002140194D41C00869070843E908840F99
:101840008D002543840024184D4124196D41121B3D
:10185000AB4107E00925ED432C11521963410024E7
:10186000401C61411C460A250026551BB441F1D29B
:1018700070BD0000F8B51F46044601230068DB0276
:10188000032601461840072A05DB002801D017A5CA
:1018900006E017A504E0002801D016A500E016A573
:1018A000102081432160A069C01E002FA06101D0DB
:1018B000401EA0612046C046C046002F09D03846D1
:1018C0006268A1689047206A401C2062C01C2062A8
:1018D00006E0206AFAE762682878A1686D1C9047E4
:1018E000761EF8D22046C046C046F8BD4E414E0096
:1018F0006E616E00494E4600696E6600F7B5164689
:101900008AB0334878446C4603467C33C06F5A68CB
:101910009B680DC42E487844763003AC0DC80DC4C6
:101920003720C001081837211B30FEF783FD05461C
:101930000C46803D1B3C02D56442012000E00020A3
:101940000027099010E0E0070CD00C2020497843D4
:10195000794432464C3941186846012300F054FA64
:101960006B4607C364107F1C002CECD1184F7F44DA
:101970002E3F16E0E80712D02001C0190EC80691CC
:10198000089307920068F04201D1981908903246F6
:10199000012306A903A800F037FA03AB07C36D10B3
:1019A000641C002DE6D10998002806D0324669460D
:1019B000012303A800F07EFA05E0012332466946C0
:1019C00003A800F021FA0A9B07C30DB0F0BD000088
:1019D00030350000034640000A4610B5400D0BD0DC
:1019E0000121C9070F24A40200191C036408214324
:1019F000540D2143D20207E000210120F2E7D40F69
:101A0000490021435200401E0029F8DADB0FDB07B2
:101A1000184310BDFFB50D46144685B0486851689F
:101A200003F02BF800910190A868A16803F025F855
:101A300002910390A868616803F01FF8029A1218D7
:101A40008242029201D2012000E00020019A0B188C
:101A5000D2180028019202D08A4202D903E08A42B9
:101A600001D2012000E00020009908180090686869
:101A7000A16803F002F8029A12188242029201D27F
:101A8000012000E00020019A0B18D21800280192D2
:101A900002D08A4202D903E08A4201D2012000E04A
:101AA000002000990818009028682168400049002B
:101AB000400849084018FA49471814E001994000C5
:101AC000C90F08430090019802994000C90F0843CC
:101AD0000190029803994000C90F084302900398AF
:101AE00040007F1E039000980028E7DA089800283D
:101AF00001D0EC4E00E00026B74201DA012000E000
:101B00000020002804902AD0F71BF806C00E15D03C
:101B1000029B2021091A039A8B401A430392029ACE
:101B2000019BC2408B401A430292019A009BC24023
:101B30008B4000991A430192C14000917B110DD056
:101B40006F460320C11A03D500218200B95003E07B
:101B50008A008100BA587A50401EF3D53746039860
:101B60000299002800D00120014308980291002822
:101B700008460CD0002800D001200199019A49059F
:101B800008430121D20AC902D202019200E00121D8
:101B90000E9B0122D207012B02D0002B03D013E0B1
:101BA000002807D120E0904204D890420CD1019B3C
:101BB0000B4209D0019B5918019105D10099491C8C
:101BC000009101D17F1C009200280DD01021084601
:101BD0000020C0460498002806D00F98002803D0A3
:101BE000082108460020C04628682168019B009A09
:101BF0004840C10F0598C90739430EC009B0F0BD70
:101C0000FFB587B0099A08980899536892684068A8
:101C1000896896460022039317469446089A1268EC
:101C20005300099A5B081268520052089A1A9E4B98
:101C3000D4180A9A002A01D0352200E040220692E8
:101C40000022012315460492DB07059324E0002DB2
:101C500005D175460346039E4D1BB34109D3754616
:101C60006646039B491B049D9841059B7519AC462C
:101C70005F4163463B4308D0059B049EDD07760821
:101C80002E435B080496059301E0521E641EC50FA7
:101C9000ED0749184041521C069B9A42D7DB002DA4
:101CA00004D17546039A6B1A824101D203200CE0DD
:101CB000039A0B466B404240134303D0014303D0C9
:101CC000012002E0022000E0002061460191002195
:101CD000009702910A99002905D06146400201430C
:101CE000704B019102E08007002302909C4201DAD0
:101CF000012000E0002007003AD01A1BD006C00ED9
:101D000015D0029D2021019C091AC5408C40254315
:101D1000029C8C4000D001242543019C0295009D2B
:101D2000C4408D4000992C430194C140009154114E
:101D30001DD06D460221002202290CD10320001B78
:101D400007E0002804DB8600AE59002E00D00122F7
:101D5000401C0328F5DB081B02D588002A5004E04C
:101D60008000285810438A00A850491EE3D51C461D
:101D70000A98002802980CD0002800D00120019970
:101D8000019A490508430121D20AC902D2020192EF
:101D900000E00121109B0122D207012B02D0002B71
:101DA00003D013E0002807D11FE0904204D89042EE
:101DB0000CD1019B0B4209D0019B5918019105D10F
:101DC0000099491C009101D1641C009200280CD09C
:101DD000102108460020C046002F06D01198002888
:101DE00003D0082108460020C04608980999019AA6
:101DF000009B006809684840C10F0798C907214344
:101E000082600AC00BB0F0BD00B585B001930092AE
:101E10000A460146002302A8FFF7FCFD02A807C8F6
:101E200005B000BDFFB50A461F4685B0079901936E
:101E300001230091014602A8FFF7ECFD02990398E7
:101E4000049ECA0F4900D20700920F22490892024D
:101E50008C1A0021002800DB0C46450013486D0851
:101E6000844214D3079A002A04DA441E0026104D37
:101E7000F64302E004460D460E46102108460020B7
:101E8000C046002F03D0042108460020C04620058C
:101E9000E90A0843009908436905F20A1143ADE6CF
:101EA00002C0FFFF013C0000FF3F0000FF070000F1
:101EB000FFFFFF7F00B585B0019300920A460146FF
:101EC000002302A8FFF79CFE02A807C8A8E7FFB5F9
:101ED0000A461F4685B007990193012300910146E8
:101EE00002A8FFF78DFE02990398049ECA0F4900CD
:101EF000D20700920F22490892028C1A0021002872
:101F000000DB0C46450011486D08844214D3079A43
:101F1000002A04DA441E00260D4DF64302E0044672
:101F20000D460E46102108460020C046002F03D063
:101F3000042108460020C0462005E90A084300990C
:101F400008436905F20A114358E60000FF07000044
:101F5000FFFFFF7F01468008081A02091018020AD5
:101F60001018020C1018C008820012185200891AAA
:101F700001E0401C0A390A29FBD27047F8B5264C0B
:101F80004E00069DA6420AD8A64201D1002806D1DD
:101F90005E00A64203D8A6420AD1002A08D00D242A
:101FA0002404254233D02946002000F0BBF8F8BDB8
:101FB0000C461C4311D4994207D0C81A02D3EFF340
:101FC0000080F8BDEFF30080F8BD801A02D3EFF374
:101FD0000080F8BDEFF30080F8BD09242407E50078
:101FE0008B4207D0581A02D3EFF3008006E0EFF3DC
:101FF000008007E0101A03D3EFF30080A04303E052
:10200000EFF30080A043284380F30088F8BD0095DB
:1020100000F0A0F8F8BD00000000E0FF00487047A5
:10202000180000207546FFF7F9FFAE460500694627
:102030005346C008C000854618B020B5FEF7C8F862
:1020400060BCB64600260027C0C5C0C5C0C5C0C517
:10205000C0C5C0C5C0C5C0C5403D490849008D4682
:10206000704710B50446C046C0462046FEF783F8C8
:1020700010BD000082078B079A423FD170B5920FC6
:102080000AD0032402780B78401C491C002A33D064
:102090009A4231D12042F5D1214EF40104C808C939
:1020A000951B9543254018D19A420FD104C808C901
:1020B000951B9543254010D19A4207D104C808C901
:1020C000951B9543254008D19A42E7D012BA1BBA16
:1020D00001209A4200D2404270BD12BA1BBA2DBAFA
:1020E00018241000E0401900E140401A05D12E00EC
:1020F000E64002D1083CF4D1D01A70BD02780B78CA
:10210000401C491C002A09D09A4207D102780B785A
:10211000401C491C002A01D09A42EFD0D01A7047C7
:1021200001010101C80212D54803400F002804D064
:10213000C803C043012188407047EFF300800001CD
:10214000000903210907084380F300887047002035
:102150007047000010B500200249029A00F004F810
:1021600010BD00000000F87F10B50C461107090FE4
:10217000092904D00A290AD008290CD104E0114603
:102180000820FFF7CFFF06E0510606D501E0510613
:1021900001D50120C007214610BDD10607D5010198
:1021A0000909CC084907000E0006044309E0410F65
:1021B00020024907000A0143200E00061D22D141DA
:1021C00001430846E7E7000001491820ABBEFEE7DF
:1021D0002600020070470000F0B585B0029000F0C4
:1021E000BBF90490DB4AD061508991691646081A00
:1021F000FEF79BFE04460D463089FEF79EFE3F2209
:102200001306039300273A46FEF79AFE22462B4612
:10221000FEF796FEFEF70EFE04461220305EFEF735
:1022200084FEAC4B3A46FEF78BFE05460E46142064
:10223000C849085E2018FEF778FE02460B4628467D
:102240003146FEF7D3FBFEF7F5FD0019C14D2863BB
:1022500060494118A9630420285E48430C46019157
:10226000FEF763FE5C4B3A46FEF76AFEFEF7E2FDC0
:10227000009020466043FEF758FE584B3A46FEF762
:102280005FFE06460C460C20285EFEF74EFE024618
:102290000B4630462146FEF753FE514B3A46FEF7B9
:1022A0004FFEFEF7C7FD00990818801CFEF73DFEA3
:1022B0004C4B3A46FEF744FEFEF7BCFD0090A86288
:1022C0000E20285EFEF731FE02460B4630462146C0
:1022D000FEF736FEFD2294053A462346FEF730FE11
:1022E000FEF7A8FD06460220285E01994843FEF746
:1022F0001CFE3A462346FEF723FEFEF79BFD3018F0
:10230000E95F89004018029A9040801CC117890F2C
:1023100040188010E8620499081A334CD4404443B2
:10232000EC630120C00300990918E8884843FEF7D0
:1023300004FE3A46039BFEF703FEFEF7B1FD01469D
:102340002E466863002C04D4600002F09BFA054618
:1023500003E0204602F096FA450024486843FEF761
:10236000E4FD00241E4B2246FEF7EAFDFEF762FD67
:10237000074670622846FEF7D8FD05460E461C4B00
:102380002246FEF7DDFD02460B46FEF7D9FDFEF7BD
:1023900051FD18494843FEF7C8FD2246104BFEF791
:1023A000CFFDFEF747FD6B49086238181249401807
:1023B000FEF7BBFD484B2246FEF7C2FD2A463346D8
:1023C000FEF7E4FAFEF736FD62490864FEF7DAFF2D
:1023D00005B0F0BD60F0FFFF0000203F0000303F7F
:1023E0000000F03E0000D03F50C3000043E3FFFF79
:1023F0000000703FDE0B0000CF0E0000F0B587B08C
:1024000006A82E21017005AC0021049121807D21B8
:10241000CE00012500A961C16948EE27F4223946A2
:102420002B4600F0E5FC052000F0D4F802200094D3
:1024300001900296F622624839462B4600F0C2FB14
:10244000208840BA434CA0616189401AFEF76DFDB7
:1024500005460E462089FEF770FD3F221306049FB5
:102460003A46FEF76DFD2A463346FEF769FDFEF754
:10247000E1FC054620621220205EFEF756FD154B5A
:102480003A46FEF75DFD06460F461420205E2818EA
:10249000FEF74BFD02460B4630463946FEF7A6FADC
:1024A000FEF7C8FC6062401920630830FEF73DFD6E
:1024B000094B049D2A46FEF743FDFEF7BBFC606412
:1024C000FEF733FD054B2A46FEF790FAFEF7A4F817
:1024D00007B0F0BD0000A0400000B03F0000244065
:1024E00010B58AB004AC0020A08208900790069036
:1024F00005900490C0431621009401910290304849
:10250000EE21AA22012300F05DFB049841BA114894
:102510000180618849BA4180059949BA8180E18882
:1025200049BAC180069949BA0181618949BA418194
:10253000079949BA8181E18949BAC181089949BAA3
:102540000182618A49BA4182099949BA81820AB0F5
:1025500010BDC046D0000020B0B586B00446800152
:10256000343005A9087004A80022827002807D2002
:10257000C500012300A82AC01148EE21F42200F072
:1025800037FC032C04D8A0000EA1085800F022F854
:1025900002950320019004AD00950948EE21F62232
:1025A000012300F00FFB0820011B287800046A7843
:1025B00012021018AA788018C84006B0B0BDC046F4
:1025C0002005002005000000080000000E000000AB
:1025D0001A000000B0B5044600F0D8F80546601CAB
:1025E00002D004480078041900F0D0F8401BA04243
:1025F000FAD3B0BD00000020F0B58AB00190099177
:102600000A68002A00D1B7E05C48019B834201D0F0
:10261000062000E005200B2109075B180A21CB41A9
:102620000093052B00D300900026354634460BE07E
:1026300011433960641C099802681046E040B61CDA
:102640002D1D002800D197E001210846A04002403E
:10265000F0D0029404920591089503252946B140D3
:10266000CA43099934464E6833462B405F1E012FFA
:1026700007920696039410D80F4601998D6815406D
:10268000FF68A7402F438F60F506ED0F029CA54021
:102690004F6887432F434F6008E0032B029C05D10E
:1026A0002B46019F089D049A039E22E0019FF86833
:1026B0000799084009998D68039EB5400543FD6060
:1026C000022B089D049A14D11C2028400F21814020
:1026D000E3089B00FB1806931D6A8D43099B19694B
:1026E00081402943089D069801625868032306909B
:1026F0000340B3403868079908401843386006988B
:102700008003800F059B95D01E4908681843086018
:102710000C2028400F218140032325469D431A4F5A
:10272000EB598B43009981401943E951144FB96823
:1027300009984068C30201D5114300E09143089D08
:10274000B960F96883020AD51143F9607968830397
:102750000AD4914379603968C0030BD568E7914387
:10276000F96079688303F4D5114379603968C0034F
:1027700000D55DE791435CE70AB0F0BD001C005056
:102780000004014034100240080001400148006884
:102790007047C046C8050020B0B502460346403326
:1027A0005C780220202C17D11C78012C14D0242016
:1027B0005870106802680124A24302602203056871
:1027C0009543056002680A43026001682143016085
:1027D0000020187020215970B0BDB0B502460346E4
:1027E00040335C780220202C17D11C78012C14D0A7
:1027F00024205870106802680124A24302600F224E
:1028000012020568954309022943016001682143CA
:1028100001600020187020215970B0BDF0B581B062
:10282000002822D00446054640356878002804D1A7
:1028300000202870204600F0EDFB242068702068FE
:10284000026801218A4302600F22120663689343E3
:1028500003618368194A13408360A368E668012E08
:1028600006D1CE03334383600AE0012001B0F0BDFE
:102870002127BF023B438360022E01D1CB0243607C
:1028800043680F4E1E434660C3681340C36022690D
:1028900063691343A26912021A43C260E269236AA0
:1028A0001343036002680A43026000206064202131
:1028B00069702063A87001B0F0BDC046FF7FFFFFC4
:1028C00000800002F0B58BB009930B46044600214E
:1028D0000A910646403670780227202800D0A5E0ED
:1028E000059120688169090400D59FE031780129AC
:1028F00000D19BE024217170012102913170059972
:102900006164AD490B4004960692039307E0049E70
:10291000039B0A99491C0A910A99914278D2E1686D
:102920000129A64900D04349C9184160FFF72EFF8D
:1029300008902068816920252940826910273A4043
:1029400089182CD10999491C11D00998002864D004
:10295000FFF71CFF0899401A099988425FD8206840
:102960008169294082693A408918F1D017E081696C
:10297000294082693A40891811D1816929408269C8
:102980003A4089180BD18169294082693A408918F7
:1029900005D18169294082693A408918E7D0866962
:1029A0000898009020210025204607912A46099B7F
:1029B00001F07AFAF1061FD5002827D12068C761F7
:1029C0000799C1610A99069A9142A0D10127B903DA
:1029D00042680A4342600898009020250022204661
:1029E0002946099B01F060FA069A0028049E039B81
:1029F0001CD12068C5618CE70028029F049E15D178
:102A000020680799C16171702F460DE0029F0DE0AB
:102A100007997170606C084304E0FFF7B7FE7570AA
:102A2000606C2843606401270598307038460BB00D
:102A3000F0BDC04600280002F0B587B006910446FC
:102A40000146403148780225202800D0A0E00591B9
:102A50000878012800D19BE0039304920125059892
:102A60000570FFF793FE064621688869000419D4B3
:102A70002120059A50701020907000226264039803
:102A80006085049860626263608D000AD14D029295
:102A90001DD0069A2A404868CF4D0540091DFF23E6
:102AA00047481FE0EF0302E088693842E0D0FFF7B3
:102AB0006DFE801B21681A28F6D388693842F3D04E
:102AC000606C202108436064059A51706DE0638D4D
:102AD0004868C14A024006982840DDB22D042D18EE
:102AE000091D36480C9F2A4302430A602385608DE6
:102AF000002845D00698B7490840069012E0608D3E
:102B0000208521684A68B74B1A40C0B200041043C0
:102B100001225206091D069B184310430860608D70
:102B200000282DD020463946324601F06FFA0125A3
:102B300000282DD12068616A0A788262608D401E6B
:102B40006085481C6062208D401E2085618D0029B3
:102B5000E5D00004E3D100968021002220463B46C8
:102B600001F0A2F9002813D1608D000AC7D0FF2020
:102B70002085216848689B4A1040091D9A4ACAE787
:102B800020463946324601F0FEF9002803D00125DF
:102B9000284607B0F0BD20682021C1614268934BF0
:102BA00013404360059A5170029D00201070907090
:102BB000284607B0F0BDC046FF0300000020000219
:102BC0000020FF01F0B589B0044606464036707813
:102BD0000225202847D10E9F002F41D00F980028B2
:102BE0003ED00590307801283DD0039302920691A3
:102BF000012007903070FFF7C9FD03462068816906
:102C00000904089332D41099079122217170402150
:102C1000B170002204926264059961856762626303
:102C2000F649069A0A40039FF9B2090406928918E8
:102C30004268F34D2A40891801256A0389184160CA
:102C4000204607991A4601F0E1F90028049843D17B
:102C50002068012F26D10299C9B28162089F31E014
:102C6000012568026064284609B0F0BD0798C503D5
:102C700002E081692942C6D0FFF788FD089BC11A8E
:102C800020681A29F5D381692942F2D0606C20218D
:102C900008436064717000203070B070079D284652
:102CA00009B0F0BD0299090A816220460799089F80
:102CB0003A4601F0ABF9002804980DD1206802993A
:102CC000C9B28162079B009740210022204601F093
:102CD000EBF80028049803D03070284609B0F0BD06
:102CE000608D000A07D020684168C54A1140021D66
:102CF000FF203B4B09E0608D22685368C0490B40C0
:102D0000C1B209041943121D344B1943069B1943E0
:102D100011602085089A079B14E0608D208521684A
:102D20004A68BA4B1A40C0B200041043012252064E
:102D3000091D069B104318430860608D0028089AFF
:102D4000079B31D000920421002720463A4601F02B
:102D5000ABF8002887D1606A2168496A0170608DEC
:102D6000401E6085606A401C6062208D401E208588
:102D7000618D0029E1D00004DFD108980090802106
:102D800000222046079B01F08FF8002800D06AE758
:102D9000608D000AC1D0FF202085216848689B4AC9
:102DA0001040091D984AC4E72046194601F0EBF887
:102DB000002800D057E720682021C1614268944B69
:102DC0001340436071703770B7703D46284609B0B4
:102DD000F0BDC046FF030000009800FC0024000284
:102DE0000024FF01009C00FC0000FF0100E800FE41
:102DF000F0B589B005460646403674780220202C8E
:102E000009D10E9C002C08D00F9F002F05D00697EB
:102E10003778012F06D109B0F0BD01204102696465
:102E200009B0F0BD03930292059101200490307027
:102E3000FFF7ACFC089028688169090445D4109913
:102E40000791212171704021B17000276F640699AC
:102E500069856C626F636949059A0A400399C9B232
:102E60000904059289184268654B1340C918654AE0
:102E70008918416028460799089C224601F0C6F847
:102E800000281ED106972868039901290BD00299C2
:102E9000090A816228460799224601F0B7F80028FE
:102EA000069F0ED128680299C9B28162079B0094DF
:102EB000802100242846224600F0F6FF0028069FC5
:102EC0001ED03770049809B0F0BD0498C70302E023
:102ED00081693942B3D0FFF759FC0899411A286833
:102EE0001A29F5D381693942F2D0686C2021084350
:102EF0006864717000203070B070049809B0F0BD43
:102F00000394059C012004904206688D000A3E4B04
:102F10003E49069207D028680A4641681746114084
:102F2000021DFF200DE0688D2B6802935B680F4641
:102F30000B40C1B209041943029B1B1D02931346A7
:102F4000029A1943214311602885079B10E0688D80
:102F5000288529684A683A40C0B200041043091D18
:102F6000069A079B104320430860688D00282FD0E5
:102F700028461946089A01F049F8002825D1286802
:102F8000696A0A788262688D401E6885481C68629A
:102F9000288D401E2885698D0029079BE5D00004F7
:102FA000E3D10898009080210022284600F07CFFA1
:102FB00000280AD1688D000AC9D0FF202885296819
:102FC00048683840091D104ACBE7049809B0F0BDA5
:102FD00028461946089A00F0D6FF0028049800D029
:102FE00019E728682021C1614268094B13404360FA
:102FF000717003983070B07009B0F0BDFF0300002D
:10300000009800FC002000010000FF01009C00FC73
:1030100000E800FEF0B587B00025069505950495FB
:10302000039502950068264F2649884216D0264906
:10303000884242D138680221084338603868084025
:10304000019004200690049512200390032005901F
:103050000002029001980120440527E0386801260B
:103060003043386038683040019001983868022158
:1030700008433860386808400190072000900690A7
:1030800003240594049512270397300202900198B7
:103090000520000702A9FFF7AFFA009806900594F3
:1030A00004950397064F10200290B407074802A921
:1030B000FFF7A2FAF8682043F86007B0F0BDC046F9
:1030C0002C100240007800400054004000040050E2
:1030D0001D48007802490A68101808607047C04609
:1030E000C805002010B50848016840220A43026064
:1030F0000024204600F00AF8002801D0012010BD6D
:1031000000F026F8204610BD0020024070B50446AD
:103110007D20C0000C4E317801F0B4FB01460B4815
:10312000006801F0AFFB00F041FD0125032C08D839
:10313000002806D10025E84321462A4600F014F86D
:103140007460284670BDC0460000002010000020BA
:1031500004480168012211430160110742680A43D3
:103160004260704734100240002805D40322034611
:1031700093430A4A9A1803E00C220240064BD218E5
:103180008007C00E8901C9B28140FF2383401068C7
:10319000984308431060704714ED00E000E400E03D
:1031A000F0B589B0066801252F02EA0211462031E8
:1031B000884B0E427DD0059208902907143B186871
:1031C0000840049002D118680843186002930391E4
:1031D000814C2068384211D1206838432060FFF7C5
:1031E000D5FA06462068384208D1FFF7CFFA801B8F
:1031F0006428F7D90325284609B0F0BD0326340515
:1032000074484C38069001682140089B5868024673
:1032100022400096360491420AD19A682240914297
:103220003246069E0DD001461140914206D008E07C
:1032300001463140B1423246069E02D131688903CF
:10324000D9D40194634B59680792114021D0079A51
:103250001040814203D00898007880060AD408986C
:103260008068079A1040814213D008980068059939
:1032700008420ED05868E9045A680A435A605A68EE
:103280008A435A600146079A91435960384200D0F8
:103290008DE00898066805990E425AD1B106019C46
:1032A0006ED40499002904D1029C2168039A9143A9
:1032B0002160F1070DD1B10713D4710719D431077B
:1032C00020D43E4227D171062ED40025310692D556
:1032D00035E0196803229143C2680A431A60B107B6
:1032E000EBD519680C22914302690A431A607107F1
:1032F000E5D5032189021A688A434169114319609F
:103300003107DED5032109031A688A438169114315
:1033100019603E42D7D0032109041A688A43C16963
:10332000114319607106D0D5012189061A688A43B4
:10333000416A114319600025310600D45BE703217F
:103340008A0419689143006A08431860284609B046
:10335000F0BD82681146079C2140A1420AD1019824
:10336000024003231B05069D2C689C43194B0898BB
:1033700014432C605A680A435A60B106019C90D5E8
:1033800042681146079D2940A94209D122400323E2
:103390001B05069D2C689C430E4B089814432C601B
:1033A0005A680A435A600499002982D17CE7FFF7E2
:1033B000EDF90546904C074B5868800500D568E745
:1033C000FFF7E4F9401BA042F5D9009D284609B05B
:1033D000F0BDC0464C10024000700040F0B583B014
:1033E0000290002846D00E468248006801210191D3
:1033F0000840B04216D27F4908680125A8433043EF
:1034000008607D4CFFF7C2F907467A4800682840FB
:10341000B04207D0FFF7BAF9C01BA042F5D903208C
:1034200003B0F0BD029800688107744D06D5296885
:10343000F0229143029A92680A432A60C0071CD185
:103440006C48006801273840B04225D969490868AE
:10345000B8430860684CFFF799F90546654800686D
:10346000C00719D0FFF792F9401BA042F6D90320FC
:1034700003B0F0BD012003B0F0BD029842682946B8
:103480000C39012A32D0032A35D0022A39D10968F1
:103490008903019833D538E0029800684107574CFA
:1034A00007D50721090222688A430299C968114396
:1034B0002160000708D50720C002216881430298D7
:1034C0000069C0000843206021680807820F4C484B
:1034D0007A4412795200974401617F68380421468A
:1034E000083909680904490F884075E009684907E7
:1034F000019804D509E009688901019805D403B051
:10350000F0BD096889050198F9D529680320019063
:10351000814311432960FFF739F907460298406853
:10352000354C032811D002281DD0012829D1286844
:103530000C210140042900D182E7FFF727F9C01BC5
:10354000A042F4D9019803B0F0BD28680C210140D5
:103550000C2900D174E7FFF719F9C01BA042F4D978
:10356000019803B0F0BD28680C210140082900D162
:1035700066E7FFF70BF9C01BA042F4D9019803B02E
:10358000F0BD28680007800F00D159E7FFF7FEF86B
:10359000C01BA042F5D9019803B0F0BD20460C38FD
:1035A0000068C00612D5184816E08A02120F154BA3
:1035B0009A5C0902890F491C2368DB0309D4204661
:1035C0000C380068C00603D4104802E00F4803E03E
:1035D0000D48504301F056F921680906090F0C4ABD
:1035E000515CC8400B4908600B480068FFF78EFD2E
:1035F00003B0F0BD00200240881300000C10024010
:1036000000127A00385C000800093D000024F40034
:10361000CC4E00081000002004000020F0B589B056
:10362000002856D0644EF1680C220A40069201210F
:1036300005910904F76804910F4007900078C007CE
:1036400010D00698082806D006980C2800D0D5E09F
:10365000002F00D1D2E03068800303D5079840687E
:10366000002851D007980078800735D40798007853
:10367000C0064CD407980078000766D407990878EC
:10368000400700D59AE00878800600D521E1079828
:10369000846A002C1AD006980C2800D06DE1012C09
:1036A00032D0F068049A0240079BD96A8A422BD133
:1036B0000F21890401401A6B914225D1032189050C
:1036C0000840596B8842059800D059E2002009B0A3
:1036D000F0BD012009B0F0BD079BD868810604D574
:1036E000316820221143316090430699042906D0A5
:1036F00006990C2900D0ACE0002F00D0A9E0316879
:10370000490739D5002837D1059809B0F0BD06988A
:10371000002800D1B3E030680799C969002900D1B9
:1037200007E101210A02104330604C02FFF72EF836
:1037300005463068204200D00EE1FFF727F8401B15
:103740000228F6D9032009B0F0BD306D0799496908
:10375000002900D1DCE0012108433065FFF716F8AD
:103760000546306D800789D4FFF710F8401B02280A
:10377000F7D9032009B0F0BD1F21090272688A43FE
:1037800019690902114371603168092291430143AB
:103790003160F1680807820FFA4852007A44928833
:1037A0005200974403002001DE01260170680004E6
:1037B000410F04988840D4E1001002400122110713
:1037C000B06B0840029002D1B06B0843B063019126
:1037D00003921402F24F3868C00525D4386820439C
:1037E0003860FEF7D3FF0546386820421CD1FEF74B
:1037F000CDFF411B03206429F6D9C1E10798406839
:1038000005994C040499884209D00521090488428D
:1038100000D0C9E005988004316801433160306808
:10382000049908433060CFE007988068002800D1F1
:1038300022E1052109028842039A00D133E1A04226
:1038400000D134E1306DA04330659102306D884382
:103850002FE13168002800D1DDE0092291430143C6
:103860003160FEF793FF05463068400700D5F9E068
:10387000FEF78CFF411B03200229F5D980E1306857
:103880008005079B03D5D869002800D13CE70720B5
:10389000400371688143586A01437160FF21090642
:1038A00072688A43196A090689187160400B049985
:1038B0008140F0680006000FB64A105CC140B6486F
:1038C0000160B6480068FFF721FC002800D057E1EE
:1038D000D0E6B06807998969002900D1ACE00121E0
:1038E0000843B060706B084370634803AE490A68D0
:1038F00002430A60FEF74AFF0546B068800700D51C
:10390000C5E6FEF743FF411B03200229F5D937E145
:10391000012188433065FEF739FF0546306D800789
:1039200000D4ABE6FEF732FF411B03200229F5D994
:1039300026E101210A02904330604C02FEF726FF87
:1039400005463068204200D194E6FEF71FFF411B78
:1039500003200229F5D913E1072040037168814350
:10396000079A506A08437060FF200006716881431F
:10397000106A0006401870607CE60127380631683E
:1039800081433160FEF702FF0546022C00D0AAE019
:103990007F063068384200D1C1E0FEF7F7FE411BD8
:1039A00003200229F5D9EBE03168049A9143316094
:1039B00031681140089108990599890432688A4351
:1039C0003260002800D19CE0FEF7E0FE054630683A
:1039D000204200D046E6FEF7D9FE401B6428F6D907
:1039E000032009B0F0BD3068C00600D487E0674806
:1039F000B7E08A02120F644B9A5C0902890F491CD6
:103A0000F368049C234200D0A8E03068C00600D5CB
:103A1000A3E05F48A2E0012081433160FEF7B6FEDB
:103A200005463068400700D420E6FEF7AFFE411B94
:103A300003200229F5D9A3E001218843B06048039F
:103A400059490A6882430A60FEF7A0FE0546B0683D
:103A5000800700D41BE6FEF799FE411B03200229D4
:103A6000F5D98DE01F200002716881430798006935
:103A7000000208437060F9E5306DA0433065039A99
:103A80009002316D814331655402464FFEF77EFE50
:103A90000546306D20421CD0FEF778FE411B032006
:103AA000B942F6D96CE09002316D01433165306D59
:103AB0002043306554023B4FFEF768FE0546306DEB
:103AC000204206D1FEF762FE411B0320B942F6D91F
:103AD00056E002980028079900D0D4E5B06B019A0F
:103AE0009043B063CFE57C063068204200D1EDE51D
:103AF000FEF74CFE411B03200229F5D940E0244883
:103B00002FE0FEF743FE05463068204200D1A9E5CC
:103B1000FEF73CFE411B03206429F5D930E0FD206F
:103B20000004F1688143079B2C330DCB08431043FD
:103B30001843F0602748401C316801433160FEF7AC
:103B400025FE04463068384200D0BFE5FEF71EFE71
:103B5000011B03200229F5D912E00C48504300F064
:103B600091FEF1680906090F0A4A515CC8400A49EA
:103B700008600A480068FFF7C9FA002800D175E517
:103B800009B0F0BD00127A00385C000800093D0061
:103B90000024F400CC4E0008100000200400002097
:103BA000007000408813000020000140401E010EFC
:103BB00001D0012070470749074A50600748036851
:103BC0000B400321890759180160002090600721EC
:103BD00011607047FFFFFF0010E000E020ED00E003
:103BE00010B53822825C012A01D1022010BD0246A4
:103BF000383202235370006843687024A3430C6872
:103C00001C43836844603B4CA04207DC0124A407AA
:103C1000A04209D03A4CA04206D00AE0364CA0425D
:103C200002D0364CA04204D18024A34349681943F2
:103C30008160002010700121517010BDB0B50028C6
:103C400019D00446054638356878002804D100208C
:103C50002870204600F056F802206870206801683D
:103C6000244B984209DC0122920790420BD0244A4F
:103C7000904208D018E00120B0BD1F4A904202D007
:103C80001E4A904210D170229143A2680A432146F5
:103C90003A3198420DDC01239B0798420FD0184B14
:103CA00098420CD013460FE00A4621463A3198421A
:103CB000F1DD114B984202D0104B984217D10323EB
:103CC0001B029A43236913438022934362691A4378
:103CD0000260E268C26262688262012242610A7125
:103CE0000A704A708A70CA706A700020B0BD1346AC
:103CF000EAE7C046FF070140001401400008014008
:103D00000004004000680549884200D0704704481C
:103D1000016810220A4302607047C046001000404C
:103D200038100240FEE70000F0B585B00E460446AC
:103D30004030049020688169C90606D400210F46EE
:103D400001258269D30545D448E01021C16181690C
:103D5000890637D4711C32D015460120002E6CD153
:103D600086030390C7030297FEF710FD20684268A0
:103D70000499897883693B4209D0324007D12029D0
:103D800005D0416831434160FEF700FD05462068DB
:103D90008169890605D4FEF7F9FC401B1A28F6D381
:103DA00077E081698906029FDED50BE0816989068B
:103DB00008D48169890605D48169890602D481699C
:103DC0008906F3D52021C1610127042101258269DB
:103DD000D30503D52B02C36129432F466B02560539
:103DE00006D41A420AD1002F0BD1002005B0F0BD35
:103DF000AD02C561082529431A4202D0C3610222DF
:103E000011438269920701D5002282628269D2073A
:103E100003D182690123134383614268214B13401C
:103E20004360606C0843606420200499487000205F
:103E300008708870012005B0F0BD810302910390E5
:103E4000C0030190019F03E0206881698906B9D40D
:103E5000FEF79CFC401BB042F6D9206842680499EA
:103E6000897883693B420BD0029B1A4008D12029F4
:103E700006D04168029A11434160FEF787FC05466F
:103E8000206880698006DFD4FEF780FC401B1A287A
:103E9000F6D3206881692421039F01258269D30517
:103EA00098D49BE700E800FEF0B583B01C461546A9
:103EB0000E460746036899693140891B4A424A41C8
:103EC0000020AA4234D1611C2BD0002C32D10446F0
:103ED000FEF75CFC386881693140891B4A424A41DF
:103EE000AA4240D080693040801B41424141A942F2
:103EF000EED0204603B0F0BD99693140891B4A429B
:103F00004A41AA4214D199693140891B4A424A4127
:103F1000AA420DD199693140891B4A424A41AA42BD
:103F200006D199693140891B4A424A41AA42E3D0ED
:103F300003B0F0BD01900898029006E0806930401F
:103F4000801B41424141A9421AD1FEF71FFC029950
:103F5000411A3868A142F1D981693140891B4A422E
:103F60004A41AA42EAD138464030796C20221143B6
:103F700079644270002101708170012003B0F0BDAE
:103F8000019803B0F0BDF0B581B0054600688069C6
:103F90000024800622D416460F46002903D129E0CA
:103FA000806980061AD4284639463246FFF7BCFE9F
:103FB000002827D1FEF7EAFB811B2868B942EFD918
:103FC00081698906ECD428464030696C202211436F
:103FD000696442700021017081700124204601B0A3
:103FE000F0BDFEF7D3FB286881698906EBD58069AF
:103FF0008006F3D40024284621463246FFF794FE7B
:104000000028EED00124204601B0F0BDF0B581B00B
:104010000546006880690024800716D416460F46BE
:10402000481C19D0002F26D10024284621463246AC
:10403000FFF77AFE002838D1FEF7A8FB28688169CF
:10404000890728D580698007EED5204601B0F0BDEC
:10405000286880698007F8D40024E1432846324666
:10406000FFF762FE0028F3D00124204601B0F0BD26
:1040700080698007E9D4284639463246FFF754FE66
:10408000002812D1FEF782FB811B2868B942EFD9C4
:1040900081698907ECD428464030696C202211439D
:1040A000696442700021017081700124204601B0D2
:1040B000F0BDFEE77047000080B5002801D1024640
:1040C00000E0FF2201208102E148FCF77BF980BD7E
:1040D000DD4A918050807047F0B585B0A0487821C6
:1040E0000125A04B2A46FEF7EDFB002803D0002552
:1040F000284605B0F0BD04AAAE205070002414700C
:104100000A260096964878270395022539462B46BD
:10411000FEF792FC04AA20200290507014700096C2
:104120008F4839462B46FEF787FC04AA10200190E1
:10413000507014700096FA4839462B46FEF77CFC06
:1041400004AAB020507014700096F54839462B46EA
:10415000FEF772FC04AAC820507014700096F04854
:1041600039462B46FEF768FC04AA5470147000967A
:10417000EB4839462B46FEF75FFC04AA01985070C5
:1041800014700096E64839462B46FEF755FC04AA03
:104190004020507014700096E14839462B46FEF7D7
:1041A0004BFC04AA8120507014700096DC483946FC
:1041B0002B46FEF741FC04AAFF20507014700096B5
:1041C000D74839462B46FEF737FC04AAA120507089
:1041D00014700096D24839462B46FEF72DFC04AAEF
:1041E000A620507014700096CD4839462B46FEF735
:1041F00023FC04AAA820507014700096C8483946C1
:104200002B46FEF719FC04AA3F205070147000964C
:10421000C34839462B46FEF70FFC04AAA420507071
:1042200014700096BE4839462B46FEF705FC04AADA
:10423000D320507014700096B94839462B46FEF7CB
:10424000FBFB04AA547014700096B54839462B46FF
:10425000FEF7F2FB04AAD520507014700096B04807
:1042600039462B46FEF7E8FB04AAF0205070147084
:104270000096AB4839462B46FEF7DEFB04AAD92050
:10428000507014700096A64839462B46FEF7D4FBB2
:1042900004AA2220507014700096A14839462B467B
:1042A000FEF7CAFB04AADA205070147000969C48EE
:1042B00039462B46FEF7C0FB04AA1220507014703A
:1042C0000096974839462B46FEF7B6FB04AADB203A
:1042D000507014700096924839462B46FEF7ACFB9E
:1042E00004AA02985070147000968D4839462B46E7
:1042F000FEF7A2FB04AA8D20507014700096884827
:1043000039462B46FEF798FB04AA1420507014700F
:104310000096834839462B46FEF78EFB04AAAF2051
:104320005070147000967E4839462B46FEF784FB89
:1043300004AA2E20507014700096794839462B46F6
:10434000039DFEF779FBA9027448FCF762F800F0C0
:104350009BF83D4884804480284605B0F0BDC046A7
:1043600074050020204E0000F0B58AB0364D6B88F1
:104370000F780993FC1800237F2C62D8AD884E7803
:1043800074193F2C5DD80891002E009053D00395EE
:1043900054425441521E5342534104932A4A1378C3
:1043A000002B099D00D004945A1E93415C40079451
:1043B00020380190002138460291089C03E00298C1
:1043C000491CB14238D20028F9D0039A53189AB246
:1043D0003F2AF5D801984643701840006268165A83
:1043E0001A011A480240072018400123834006930F
:1043F000D8430590002009E0059C2340099D474CC7
:10440000E355089C2778401CB84211D22B189FB264
:104410007F2FF7D8334683401B04079D00D5049DAA
:10442000D7193E4BDB5D002DE6D0069C2343E5E724
:1044300066783846C4E7099DF8B2281802494880D2
:10444000009B18460AB0F0BD1801002080FF0F0045
:1044500020010020F0B581B0064600780027002832
:104460000ED014460D46C0B229462246FFF77CFF07
:1044700001463078814204D17078761C0028F2D150
:10448000384601B0F0BD0000F0B5C7B007A8401C29
:1044900002900026214F0820019604960590069769
:1044A00007AA019F17703046503850700A260096B0
:1044B00078250224EE4829462346FEF7BDFA07AACE
:1044C0005770177003960096E94829462346FEF771
:1044D000B3FA07AA102050701770069F0096E44E9A
:1044E000304629462346FEF7A7FA07AC4020207045
:1044F000802202983946FBF724FF0398009081231D
:10450000304629462246FEF797FA049E0598401E3B
:104510008037761C0028C0D147B0F0BD20010020B4
:1045200074050020704780B5FEF7D2FD80BD70474E
:10453000F0B5E9B0FDF762FF474CA06000273846B0
:10454000FDF74AFE4549FCF749FE20603846FDF775
:1045500043FE4349FCF742FE064660602068E1687E
:1045600000F054FB0546E0602169304600F04EFB48
:10457000064620616169481C606113296ADB049763
:10458000FCF700FF074630463946FCF727FE03904C
:1045900028463946FCF722FEFCF7F6FD07460D4695
:1045A000304A314B00F098FA304E002809D10025EE
:1045B0002846FFF781FD28462946FFF789FD36A0EA
:1045C0000FE00020FFF778FD294A2A4B384629469C
:1045D00000F08DFA00280CD100200146FFF778FD8D
:1045E0002CA028490122FFF735FFFFF74DFF304689
:1045F0002AE00097019537ADC82102911EA22846F6
:10460000FBF7F8FD002738463946FFF761FD1D49E5
:10461000012628463246FFF71DFF0398FCF7B4FD3C
:104620000090019105AD18A228460299FBF7E2FD22
:104630001E213846FFF74CFD284612493246FFF747
:1046400009FFFFF721FF0948FDF7C4FF0498E06068
:104650002061606169B0F0BD780000200050C34760
:104660000000C842CDCCCCCCCCCCEC3F88130000B1
:104670009A9999999999F13F252E33662062617232
:104680000000000008000020252E336620685061DD
:10469000000000004D6178004D696E009EB0FEF78D
:1046A00021FD10AC201D24252946FBF7B2FE01A8F0
:1046B000001D2946FBF7ADFE0327F80267490A688B
:1046C000824301201390C302D2180A6000251C9572
:1046D0001B9502261A9610211491109680051D90A4
:1046E0002046FEF79BFF002803D0EFF3108072B640
:1046F000FEE70F950E950D950C970F200B900BA8CC
:1047000001242146FEF76AFE002803D0EFF3108053
:1047100072B6FEE70895200307902120C0000190A3
:1047200001A8FEF73DFD002803D0EFF3108072B61C
:10473000FEE74B4801680422114301600168114003
:1047400010911099016880221143016001681140A5
:104750001091109901682143016001682140109176
:10476000109901683143016001683E48056231409B
:10477000109110993C4E3D4942C0056044608560EF
:10478000C560056145610838FEF748F8002803D088
:10479000EFF3108072B6FEE732480021FDF7FCFF10
:1047A000002803D0EFF3108072B6FEE72D480025F5
:1047B0002946FEF712F8002803D0EFF3108072B6F6
:1047C000FEE72B482B4942C0056044608560C56008
:1047D0000561456185610838FEF720F8002803D09F
:1047E000EFF3108072B6FEE721480021FDF7D4FFF9
:1047F000002803D0EFF3108072B6FEE71C480025B6
:104800002946FDF7EAFF002803D0EFF3108072B6C7
:10481000FEE7194CE56219481949A161E561256275
:1048200060621195109518342046FFF707FA0028AA
:1048300003D0EFF3108072B6FEE710A92046FFF711
:10484000CFF9002803D0EFF3108072B6FEE7FDF732
:1048500047FEFFF741FCFFF76BFEFCE700700040EE
:104860002C10024020050020280C2000005400409D
:10487000740500200078004078000020FFFF000051
:104880000010004043088B421AD3002203098B42D8
:1048900079D3030A8B425ED3030B8B4242D3030CC2
:1048A0008B4227D30902FF2212BA030C8B4202D398
:1048B0001212090203D0030B8B4233D31AE0D3E068
:1048C000411A8041401C704703460B4371D4430892
:1048D0008B42F5D3002203098B4254D3030A8B4247
:1048E00039D3030B8B421DD3030C8B4202D3944666
:1048F0006EE0090AC30B8B4201D3CB03C01A5241AD
:10490000830B8B4201D38B03C01A5241430B8B4262
:1049100001D34B03C01A5241030B8B4201D30B034B
:10492000C01A5241C30A8B4201D3CB02C01A524172
:10493000830A8B4201D38B02C01A5241430A8B4235
:1049400001D34B02C01A5241030A8B4201D30B021E
:10495000C01A5241CDD2C3098B4201D3CB01C01A38
:10496000524183098B4201D38B01C01A5241430942
:104970008B4201D34B01C01A524103098B4201D330
:104980000B01C01A5241C3088B4201D3CB00C01A9D
:10499000524183088B4201D38B00C01A5241430815
:1049A0008B4201D34B00C01A5241411A52411000B0
:1049B0007047CA0F00D04942031000D34042534011
:1049C00000229C4603098B422DD3030A8B4212D34B
:1049D0008901FC2212BA030A8B420CD3890192117D
:1049E0008B4208D3890192118B4204D3890137D0BD
:1049F000921100E08909C3098B4201D3CB01C01A8F
:104A0000524183098B4201D38B01C01A52414309A1
:104A10008B4201D34B01C01A524103098B4201D38F
:104A20000B01C01A5241C3088B4201D3CB00C01AFC
:104A3000524183088B4201D38B00C01A5241D9D214
:104A400043088B4201D34B00C01A5241411A00D295
:104A500001465241104663465B1000D34042704706
:104A600063465B1000D3404201B50021004201D0F3
:104A7000C9430846C046C04602BDF8B5040C8BB217
:104A8000264682B25E43104658430D0C370C36045E
:104A900000218019164679416E43370C360480197F
:104AA000264679416E438919F8BD00004900CA02C3
:104AB0000243100000D004204A0D01D0012210430F
:104AC000044A490D914201D102210843012800D135
:104AD00005207047FF07000010B500F033F8EFF332
:104AE0000080800001D5012010BD002010BD10B550
:104AF00000F05AF8EFF300804000800F012801D049
:104B0000012010BD002010BD30380A2801D201203C
:104B1000704700207047000010B500290AD00878BF
:104B2000002807D005487844FDF7A4FA002801D0F2
:104B3000002010BD0248784410BD00003E11000066
:104B40003611000070B501252D050C001C4310D452
:104B5000EC4206D4AC420AD4994200D070BD9042D7
:104B600070BDE94217D4EB4215D4994270BD894219
:104B700070BDEC4206D5AC42F9D58B4200D070BD79
:104B8000824270BD6D004C00EC4204D25C00EC42ED
:104B900001D28B4270BD034C30B4FDF7EFF930BC4D
:104BA00070BD00BF1900130470B501252D050C0060
:104BB0001C4310D4EC4206D4AC420AD4994200D033
:104BC00070BD904270BDE94217D4EB4215D49942B2
:104BD00070BD894270BDEC4206D5AC42F9D58B421E
:104BE00000D070BD824270BD6D004C00EC4204D21A
:104BF0005C00EC4201D28B4270BD034C30B4FDF737
:104C0000BDF930BC70BD00BF1900160470B5012598
:104C1000ED0704004C4020D4441A01D2001B0919AE
:104C2000C60D4B00F2B2FF2A29D01B0E2CD0000279
:104C30000C0228432C43D31ADC40051910D2280A51
:104C400002D3401C6D0611D0761EF6058019FF2A8E
:104C500000DA70BDC00DC00570BD694000F022F8DB
:104C600001200543C541521C761CE8E764089C40BE
:104C7000C90161408900E7D10124A043E4E71B0E8C
:104C8000440200D0034870BD002AFCD1C00FC00709
:104C900070BD00BF0000C07F70B50125ED070400A6
:104CA0004C4022D4441A02D26C40001B0919C60D94
:104CB0004B00F2B2FF2A4BD01B0E50D000020C0268
:104CC000A8432C43D31ADC40051B05D5AD0019D3EE
:104CD0006D08761E521E37D0F605280A01D28019BB
:104CE00070BD70416D0603D070BD6940FFF794FF41
:104CF0009C4009026140490001D0401E70BD012462
:104D0000A04370BD6D081DD001202B0C01D12D04D6
:104D100010302B0E01D12D0208302B0F01D12D01A7
:104D2000001DAB0F01D1AD00801CEB0F01D16D0058
:104D3000401C361A121A6D00680AF5054019012A3E
:104D400002DB70BD002070BDC036300AC00770BDE8
:104D50001B0E440201D1FF2B00D1024870BD002A76
:104D6000F0D070BD0000C07F03B402487844844690
:104D700003BC6047C9C7FFFF80807F7E7D7C7B7A54
:104D80007978777676757473727171706F6E6E6DF7
:104D90006C6C6B6A6A69686867666665646463639D
:104DA00062616160605F5F5E5E5D5D5C5C5B5B5A23
:104DB0005A59595858575756565555555454535390
:104DC00052525251515050504F4F4F4E4E4D4D4DEB
:104DD0004C4C4C4B4B4B4A4A4A4949494848484736
:104DE0004747474646464545454444444443434374
:104DF0004342424242414141818283848586878881
:104E0000898B8C8D8E8F919293959697999A9C9D74
:104E10009FA0A2A3A5A7A8AAACAEB0B2B3B5B7B9DC
:104E2000BCBEC0C2C5C7C9CCCED1D4D7D9DCDFE2A5
:104E3000E6E9ECF0F3F7FAFE02400000000000A003
:104E40000000000005400000000000C80000000055
:104E50000C4000000000409C0000000019400000D1
:104E60000020BCBE0000000034400000BFC91B8E03
:104E700000000004B5400000504BCFD06607E2CFE1
:104E8000010000006C4100003E8251AADFEEA73411
:104E900001000000D9420000DCB5A0E23A301F97C3
:104EA000FFFFFFFFB4450000FD25A0C8E9A3C14FE7
:104EB000FFFFFFFFFF3F0000000000800000000038
:104EC000FF3F000000000080000000000000000024
:104ED00000000000010203040607080900000000AA
:104EE00000000000000000000000000000000000C2
:104EF00000000000000000000000000000000000B2
:104F00000000000C000C000C000C000C000C000C4D
:104F1000000C000C000C000C0000000C000C000049
:104F2000000000000000001B001B001B001B001BFA
:104F30000000000000000000000000000000000071
:104F40000000000000000000000080198019801996
:104F50008019C07FC07F80190033C07FC07F0033BD
:104F60000033003300330000000000000000001E8A
:104F7000003F807580650074003C001E00078005BE
:104F8000806580658075003F001E000400040000FD
:104F90000000007000D840D8C0D880D90073000647
:104FA000000C801BC036C066C046C00680030000EF
:104FB000000000000000001E003F003300330033FB
:104FC000001E000CC03CC066806380618063C03EF0
:104FD000801C0000000000000000000C000C000C11
:104FE000000C000C000000000000000000000000A9
:104FF0000000000000000000000000008000000130
:105000000003000600060004000C000C000C000C5D
:10501000000C000C000400060006000300018000E4
:10502000002000100018000C000C00040006000610
:1050300000060006000600060004000C000C001824
:10504000001000200000000C002D003F001E003367
:105050000000000000000000000000000000000050
:105060000000000000000000000000000000000C34
:10507000000C000C000CC0FFC0FF000C000C000C6A
:10508000000C000000000000000000000000000014
:105090000000000000000000000000000000000010
:1050A000000000000000000C000C000400040008D8
:1050B00000000000000000000000000000000000F0
:1050C0000000001E001E00000000000000000000A4
:1050D00000000000000000000000000000000000D0
:1050E0000000000000000000000000000000000CB4
:1050F000000C00000000000000000003000300039B
:105100000006000600060006000C000C000C000C57
:105110000018001800180000000000000000001E29
:10512000003F0033806180618061806D806D8061AF
:10513000806180610033003F001E0000000000001D
:1051400000000006000E001E0036002600060006C5
:105150000006000600060006000600060006000025
:10516000000000000000001E003F8073806180612D
:10517000800100030006000C001800300060807FF2
:10518000807F0000000000000000001C003E006363
:1051900000630003000E000E0003800180018061A7
:1051A0008073003F001E00000000000000000006A9
:1051B000000E000E001E001E0016003600360066AF
:1051C000807F807F000600060006000000000000CF
:1051D0000000007F007F006000600060006E007FC4
:1051E00080638001800180618073003F001E0000A9
:1051F000000000000000001E003F8033806100605E
:10520000006E007F80738061806180618033003F29
:10521000001E0000000000000000807F807F8001F1
:105220000003000300060006000C000C000C000840
:105230000018001800180000000000000000001E08
:10524000003F8063806180610021001E003F80611B
:10525000806180618061003F001E0000000000004E
:105260000000001E003F00738061806180618073D8
:10527000803F801D800180610073003F001E0000A0
:105280000000000000000000000000000000000C12
:10529000000C000000000000000000000000000CF6
:1052A000000C0000000000000000000000000000F2
:1052B00000000000000C000C0000000000000000D6
:1052C0000000000C000C00040004000800000000B6
:1052D0000000000080008003000E003800600038ED
:1052E000000E8003800000000000000000000000AD
:1052F00000000000000000000000807F807F0000B0
:105300000000807F807F000000000000000000009F
:1053100000000000000000000000000000400070DD
:10532000001C000780010007001C00700040000006
:1053300000000000000000000000001F803FC0715E
:10534000C060C000C00180030007000E000C000C0C
:105350000000000C000C0000000000000000001E17
:10536000003F803180718063806F806D806D806FC1
:10537000806700600032003E001C0000000000005A
:105380000000000E000E001B001B001B001B8031E4
:105390008031803F803F8031C060C060C0600000CD
:1053A000000000000000007C007E006300630063DA
:1053B0000063007E007E0063806180618063007F07
:1053C000007E0000000000000000001E003F803151
:1053D00080610060006000600060006000608061CB
:1053E0008031003F001E0000000000000000007C33
:1053F000007F006380638061806180618061806183
:10540000806100630063007E007C000000000000FB
:105410000000807F807F0060006000600060007F8F
:10542000007F0060006000600060807F807F00007F
:10543000000000000000807F807F0060006000604E
:105440000060007F007F006000600060006000601E
:1054500000600000000000000000001E003F8031DE
:1054600080610060006000608063806380618061B3
:105470008031803F001E00000000000000008061BD
:1054800080618061806180618061807F807F8061D8
:1054900080618061806180618061000000000000A7
:1054A0000000003F003F000C000C000C000C000C42
:1054B000000C000C000C000C000C003F003F000032
:1054C0000000000000008001800180018001800157
:1054D0008001800180018001806180618073003FD4
:1054E000001E0000000000000000C060806100633A
:1054F00000660066006C0078007C00660066006351
:1055000080618061C0600000000000000000006059
:10551000006000600060006000600060006000608B
:10552000006000600060807F807F0000000000005D
:105530000000C071C071C07BC07AC06AC06AC06E12
:10554000C064C060C060C060C060C060C060000077
:10555000000000000000807180718079807980797E
:10556000806D806D806D80658067806780678063F7
:1055700080630000000000000000001E003F0033B8
:105580008061806180618061806180618061806113
:105590000033003F001E0000000000000000007EFD
:1055A000007F80638061806180618063007F007E16
:1055B000006000600060006000600000000000000B
:1055C0000000001E003F00338061806180618061C7
:1055D00080618061806580670033803F401E0000ED
:1055E000000000000000007E007F80638061806119
:1055F0008063007F007E00660063006380618061DD
:10560000C0600000000000000000000E001F80319C
:10561000803100300038001E000780038061806107
:105620008031003F001E0000000000000000C0FFAD
:10563000C0FF000C000C000C000C000C000C000C57
:10564000000C000C000C000C000C0000000000001E
:105650000000806180618061806180618061806123
:1056600080618061806180618073003F001E000066
:10567000000000000000C060C060C0608031803168
:105680008031001B001B001B001B000E000E000ED3
:1056900000040000000000000000C0C0C0C0C0C086
:1056A000C0C0C0C0C0CC804C804C805E8052805254
:1056B0008073806180610000000000000000C0C0B5
:1056C000806080610033003B001E000C000C001E57
:1056D000001F003B80718061C0C00000000000001E
:1056E0000000C0C08061806100330033001E001ED6
:1056F000000C000C000C000C000C000C000C000056
:10570000000000000000803F803F80010003000394
:105710000006000C000C0018001800300060807FAC
:10572000807F000000000000000F000F000C000C44
:10573000000C000C000C000C000C000C000C000C09
:10574000000C000C000C000C000F000F00000018F3
:1057500000180018000C000C000C000C00060006DD
:105760000006000600030003000300000000000024
:10577000001E001E000600060006000600060006C9
:1057800000060006000600060006000600060006E9
:10579000001E001E0000000C000C001E0012003352
:1057A0000033806180610000000000000000000004
:1057B00000000000000000000000000000000000E9
:1057C00000000000000000000000000000000000D9
:1057D0000000000000000000E0FF000000000038B2
:1057E0000018000C00000000000000000000000095
:1057F00000000000000000000000000000000000A9
:1058000000000000000000000000001F803F8061D9
:105810008001801F803F80618063807FC0380000EE
:105820000000000000000060006000600060006E8A
:10583000007F807380618061806180618073007F00
:10584000006E0000000000000000000000000000EA
:105850000000001E003F8073806100600060806176
:105860008073003F001E0000000000000000800167
:10587000800180018001801D803F80738061806194
:10588000806180618073803F801D00000000000007
:1058900000000000000000000000001E003F007338
:1058A0008061807F807F00608071003F001E00006B
:1058B000000000000000C007C00F000C000C807F3B
:1058C000807F000C000C000C000C000C000C000C85
:1058D000000C0000000000000000000000000000BC
:1058E000801D803F807380618061806180618073F2
:1058F000803F801D80018063007F003E00000060CB
:10590000006000600060006F807F80718061806156
:105910008061806180618061806100000000000022
:1059200000000006000600000000003E003E0006E9
:10593000000600060006000600060006000600003D
:10594000000000000006000600000000003E003ECF
:105950000006000600060006000600060006000617
:1059600000060046007E003C000000600060006011
:105970000060806100630066006C007C007600635C
:1059800000638061C0600000000000000000003E75
:10599000003E00060006000600060006000600069F
:1059A00000060006000600060006000000000000D9
:1059B0000000000000000000000080DDC0FFC0CE3D
:1059C000C0CCC0CCC0CCC0CCC0CCC0CCC0CC000003
:1059D0000000000000000000000000000000006F58
:1059E000807F807180618061806180618061806181
:1059F00080610000000000000000000000000000C6
:105A00000000001E003F80738061806180618061C2
:105A10008073003F001E0000000000000000000036
:105A200000000000006E007F8073806180618061F3
:105A300080618073007F006E006000600060006025
:105A40000000000000000000801D803F8073806126
:105A50008061806180618073803F801D8001800152
:105A600080018001000000000000000000000067CD
:105A7000803F00390030003000300030003000300E
:105A800000300000000000000000000000000000E6
:105A90000000001E803F80610060007F803F800129
:105AA0008061007F001E0000000000000000000078
:105AB000000800180018007F007F00180018001868
:105AC000001800180018801F800F00000000000060
:105AD0000000000000000000000080618061806123
